{
  "transactions": [
    {
      "hash": "0xd48c406035051d2966c45c4e5994b0feaac6dbe213654de26897b2d344b75a32",
      "transactionType": "CALL",
      "contractName": null,
      "contractAddress": "0x31a01592ac3b973d1228ff63fe723514ab4c2e4d",
      "function": "registerUsername(string)",
      "arguments": [
        "testsim"
      ],
      "transaction": {
        "from": "0x2983d066d42a79295dfac0f752ea2fa7940c33da",
        "to": "0x31a01592ac3b973d1228ff63fe723514ab4c2e4d",
        "gas": "0x1a68f",
        "value": "0x0",
        "input": "0x36a94134000000000000000000000000000000000000000000000000000000000000002000000000000000000000000000000000000000000000000000000000000000077465737473696d00000000000000000000000000000000000000000000000000",
        "nonce": "0x2",
        "chainId": "0x14a34"
      },
      "additionalContracts": [],
      "isFixedGasLimit": false
    }
  ],
  "receipts": [
    {
      "status": "0x1",
      "cumulativeGasUsed": "0x557452",
      "logs": [
        {
          "address": "0x31a01592ac3b973d1228ff63fe723514ab4c2e4d",
          "topics": [
            "0x810135d029ee569e57844deaa290c06c21b8fda6ce62e6e07a652c4632d1b71a",
            "0x0000000000000000000000002983d066d42a79295dfac0f752ea2fa7940c33da"
          ],
          "data": "0x0000000000000000000000000000000000000000000000000000000000000040000000000000000000000000000000000000000000000000000000000000000000000000000000000000000000000000000000000000000000000000000000077465737473696d00000000000000000000000000000000000000000000000000",
          "blockHash": "0x6210d92429d831a730e527d32d6ac0bd9acc14b192f459a001bee39b658139a0",
          "blockNumber": "0x207b0ad",
          "blockTimestamp": "0x6922c03a",
          "transactionHash": "0xd48c406035051d2966c45c4e5994b0feaac6dbe213654de26897b2d344b75a32",
          "transactionIndex": "0x12",
          "logIndex": "0xbf",
          "removed": false
        }
      ],
      "logsBloom": "0x00000000008000000000000000000000000000000000000000000000000000000000000000000000000000000000000100000000000000000000000000000000000000000000000000000000000000000000000000000000000000000000000000000000000000400000000000000000000000000000000000000000000000000000000000000010000000000000000000000000000000000000000000000000000000000000000000000000000000000000000008000000000000000000000020000200000000000000000000000000000000000000000100000000000000000000000000000000000400000000000000000000000000000000000000000000",
      "type": "0x2",
      "transactionHash": "0xd48c406035051d2966c45c4e5994b0feaac6dbe213654de26897b2d344b75a32",
      "transactionIndex": "0x12",
      "blockHash": "0x6210d92429d831a730e527d32d6ac0bd9acc14b192f459a001bee39b658139a0",
      "blockNumber": "0x207b0ad",
      "gasUsed": "0x131ee",
      "effectiveGasPrice": "0x3182b97",
      "blobGasUsed": "0x79e0",
      "from": "0x2983d066d42a79295dfac0f752ea2fa7940c33da",
      "to": "0x31a01592ac3b973d1228ff63fe723514ab4c2e4d",
      "contractAddress": null,
      "daFootprintGasScalar": "0x138",
      "l1BaseFeeScalar": "0x44d",
      "l1BlobBaseFee": "0x1",
      "l1BlobBaseFeeScalar": "0xa118b",
      "l1Fee": "0x51",
      "l1GasPrice": "0x9",
      "l1GasUsed": "0x640"
    }
  ],
  "libraries": [],
  "pending": [],
  "returns": {},
  "timestamp": 1763885114,
  "chain": 84532,
  "commit": null
}