{
  "transactions": [
    {
      "hash": "0xfb9d0c9a9f53da6f86264b55c50761a6ec5f6875d553274b38b33017febdf98e",
      "transactionType": "CALL",
      "contractName": null,
      "contractAddress": "0xc59947735af0be7fafe3499a76afb3d898e80e30",
      "function": "addSupportedToken(address)",
      "arguments": [
        "0x036CbD53842c5426634e7929541eC2318f3dCF7e"
      ],
      "transaction": {
        "from": "0x2983d066d42a79295dfac0f752ea2fa7940c33da",
        "to": "0xc59947735af0be7fafe3499a76afb3d898e80e30",
        "gas": "0x10e56",
        "value": "0x0",
        "input": "0x6d69fcaf000000000000000000000000036cbd53842c5426634e7929541ec2318f3dcf7e",
        "nonce": "0x3",
        "chainId": "0x14a34"
      },
      "additionalContracts": [],
      "isFixedGasLimit": false
    }
  ],
  "receipts": [
    {
      "status": "0x1",
      "cumulativeGasUsed": "0xd5629a",
      "logs": [
        {
          "address": "0xc59947735af0be7fafe3499a76afb3d898e80e30",
          "topics": [
            "0x784c8f4dbf0ffedd6e72c76501c545a70f8b203b30a26ce542bf92ba87c248a4",
            "0x000000000000000000000000036cbd53842c5426634e7929541ec2318f3dcf7e"
          ],
          "data": "0x",
          "blockHash": "0xba73cf7ff9cadbd609d926597bbf1f8f0d8386eaf110a8d4d48bbf168ebca1d4",
          "blockNumber": "0x207b108",
          "blockTimestamp": "0x6922c0f0",
          "transactionHash": "0xfb9d0c9a9f53da6f86264b55c50761a6ec5f6875d553274b38b33017febdf98e",
          "transactionIndex": "0x15",
          "logIndex": "0xc5",
          "removed": false
        }
      ],
      "logsBloom": "0x00000000000000000000000000000000000000000000000000000000000000000000000000000000000000000000000000000000000000000000000000000000000000000000000000000000000000000000000000000000000000000000000000000000000000000000000000000000000000000000200000000000000000000000000040100000000000000000000000000000000000000000000000000000000000000000000000200000000000000000000000000000100000000000000000000000000000000000000000000000000000000000000000000000000000000001000000000000400000000040000000000000000000001000000000000000",
      "type": "0x2",
      "transactionHash": "0xfb9d0c9a9f53da6f86264b55c50761a6ec5f6875d553274b38b33017febdf98e",
      "transactionIndex": "0x15",
      "blockHash": "0xba73cf7ff9cadbd609d926597bbf1f8f0d8386eaf110a8d4d48bbf168ebca1d4",
      "blockNumber": "0x207b108",
      "gasUsed": "0xb8d9",
      "effectiveGasPrice": "0x2d7218f",
      "blobGasUsed": "0x79e0",
      "from": "0x2983d066d42a79295dfac0f752ea2fa7940c33da",
      "to": "0xc59947735af0be7fafe3499a76afb3d898e80e30",
      "contractAddress": null,
      "daFootprintGasScalar": "0x138",
      "l1BaseFeeScalar": "0x44d",
      "l1BlobBaseFee": "0x1",
      "l1BlobBaseFeeScalar": "0xa118b",
      "l1Fee": "0x51",
      "l1GasPrice": "0x9",
      "l1GasUsed": "0x640"
    }
  ],
  "libraries": [],
  "pending": [],
  "returns": {},
  "timestamp": 1763885297,
  "chain": 84532,
  "commit": null
}